{"abi":[{"type":"constructor","inputs":[],"stateMutability":"nonpayable"},{"type":"function","name":"buyCoffee","inputs":[{"name":"_name","type":"string","internalType":"string"},{"name":"_message","type":"string","internalType":"string"}],"outputs":[],"stateMutability":"payable"},{"type":"function","name":"changeOwner","inputs":[{"name":"newOwner","type":"address","internalType":"address"}],"outputs":[],"stateMutability":"nonpayable"},{"type":"function","name":"getMemos","inputs":[],"outputs":[{"name":"","type":"tuple[]","internalType":"struct BuyMeACoffee.Memo[]","components":[{"name":"from","type":"address","internalType":"address"},{"name":"timestamp","type":"uint256","internalType":"uint256"},{"name":"name","type":"string","internalType":"string"},{"name":"message","type":"string","internalType":"string"}]}],"stateMutability":"view"},{"type":"function","name":"owner","inputs":[],"outputs":[{"name":"","type":"address","internalType":"address payable"}],"stateMutability":"view"},{"type":"function","name":"withdrawTips","inputs":[],"outputs":[],"stateMutability":"nonpayable"},{"type":"event","name":"NewMemo","inputs":[{"name":"from","type":"address","indexed":true,"internalType":"address"},{"name":"timestamp","type":"uint256","indexed":false,"internalType":"uint256"},{"name":"name","type":"string","indexed":false,"internalType":"string"},{"name":"message","type":"string","indexed":false,"internalType":"string"}],"anonymous":false}],"bytecode":{"object":"0x608060405234801561001057600080fd5b50600080546001600160a01b03191633179055610a8e806100326000396000f3fe60806040526004361061005a5760003560e01c8063865c517211610043578063865c5172146100895780638da5cb5b146100b4578063a6f9dae11461010657600080fd5b8063204206e11461005f5780633aaa74b214610074575b600080fd5b61007261006d36600461068e565b610126565b005b34801561008057600080fd5b506100726102fb565b34801561009557600080fd5b5061009e61033c565b6040516100ab9190610756565b60405180910390f35b3480156100c057600080fd5b506000546100e19073ffffffffffffffffffffffffffffffffffffffff1681565b60405173ffffffffffffffffffffffffffffffffffffffff90911681526020016100ab565b34801561011257600080fd5b50610072610121366004610828565b6104ec565b60003411610195576040517f08c379a000000000000000000000000000000000000000000000000000000000815260206004820152601b60248201527f63616e6e6f742062757920636f6666656520666f72206672656521000000000060448201526064015b60405180910390fd5b6040805160808101825233815242602082019081529181018481526060820184905260018054808201825560009190915282517fb10e2d527612073b26eecdfd717e6a320cf44b4afac2b0732d9fcbe2b7fa0cf6600490920291820180547fffffffffffffffffffffffff00000000000000000000000000000000000000001673ffffffffffffffffffffffffffffffffffffffff90921691909117815593517fb10e2d527612073b26eecdfd717e6a320cf44b4afac2b0732d9fcbe2b7fa0cf782015590519192917fb10e2d527612073b26eecdfd717e6a320cf44b4afac2b0732d9fcbe2b7fa0cf89091019061028d9082610909565b50606082015160038201906102a29082610909565b5050503373ffffffffffffffffffffffffffffffffffffffff167fc56140e05f516509ae28110e0f72e17558a7561630dad2647c3ae87d986e365c4284846040516102ef93929190610a23565b60405180910390a25050565b6000805460405173ffffffffffffffffffffffffffffffffffffffff909116914780156108fc02929091818181858888f1935050505061033a57600080fd5b565b60606001805480602002602001604051908101604052809291908181526020016000905b828210156104e35760008481526020908190206040805160808101825260048602909201805473ffffffffffffffffffffffffffffffffffffffff168352600181015493830193909352600283018054929392918401916103c090610865565b80601f01602080910402602001604051908101604052809291908181526020018280546103ec90610865565b80156104395780601f1061040e57610100808354040283529160200191610439565b820191906000526020600020905b81548152906001019060200180831161041c57829003601f168201915b5050505050815260200160038201805461045290610865565b80601f016020809104026020016040519081016040528092919081815260200182805461047e90610865565b80156104cb5780601f106104a0576101008083540402835291602001916104cb565b820191906000526020600020905b8154815290600101906020018083116104ae57829003601f168201915b50505050508152505081526020019060010190610360565b50505050905090565b60005473ffffffffffffffffffffffffffffffffffffffff16331461056d576040517f08c379a000000000000000000000000000000000000000000000000000000000815260206004820152600d60248201527f4e6f7420746865206f776e657200000000000000000000000000000000000000604482015260640161018c565b600080547fffffffffffffffffffffffff00000000000000000000000000000000000000001673ffffffffffffffffffffffffffffffffffffffff92909216919091179055565b7f4e487b7100000000000000000000000000000000000000000000000000000000600052604160045260246000fd5b600082601f8301126105f457600080fd5b813567ffffffffffffffff8082111561060f5761060f6105b4565b604051601f83017fffffffffffffffffffffffffffffffffffffffffffffffffffffffffffffffe0908116603f01168101908282118183101715610655576106556105b4565b8160405283815286602085880101111561066e57600080fd5b836020870160208301376000602085830101528094505050505092915050565b600080604083850312156106a157600080fd5b823567ffffffffffffffff808211156106b957600080fd5b6106c5868387016105e3565b935060208501359150808211156106db57600080fd5b506106e8858286016105e3565b9150509250929050565b6000815180845260005b81811015610718576020818501810151868301820152016106fc565b5060006020828601015260207fffffffffffffffffffffffffffffffffffffffffffffffffffffffffffffffe0601f83011685010191505092915050565b600060208083018184528085518083526040925060408601915060408160051b87010184880160005b8381101561081a577fffffffffffffffffffffffffffffffffffffffffffffffffffffffffffffffc08984030185528151608073ffffffffffffffffffffffffffffffffffffffff825116855288820151898601528782015181898701526107e9828701826106f2565b9150506060808301519250858203818701525061080681836106f2565b96890196945050509086019060010161077f565b509098975050505050505050565b60006020828403121561083a57600080fd5b813573ffffffffffffffffffffffffffffffffffffffff8116811461085e57600080fd5b9392505050565b600181811c9082168061087957607f821691505b6020821081036108b2577f4e487b7100000000000000000000000000000000000000000000000000000000600052602260045260246000fd5b50919050565b601f821115610904576000816000526020600020601f850160051c810160208610156108e15750805b601f850160051c820191505b81811015610900578281556001016108ed565b5050505b505050565b815167ffffffffffffffff811115610923576109236105b4565b610937816109318454610865565b846108b8565b602080601f83116001811461098a57600084156109545750858301515b7fffffffffffffffffffffffffffffffffffffffffffffffffffffffffffffffff600386901b1c1916600185901b178555610900565b6000858152602081207fffffffffffffffffffffffffffffffffffffffffffffffffffffffffffffffe08616915b828110156109d7578886015182559484019460019091019084016109b8565b5085821015610a1357878501517fffffffffffffffffffffffffffffffffffffffffffffffffffffffffffffffff600388901b60f8161c191681555b5050505050600190811b01905550565b838152606060208201526000610a3c60608301856106f2565b8281036040840152610a4e81856106f2565b969550505050505056fea2646970667358221220762b7b308aa2a4d3b3d665240705889f0f02eb1ea45d11d32f613513982b793b64736f6c63430008170033","linkReferences":{}},"methodIdentifiers":{"buyCoffee(string,string)":"204206e1","changeOwner(address)":"a6f9dae1","getMemos()":"865c5172","owner()":"8da5cb5b","withdrawTips()":"3aaa74b2"},"id":0}